:020000040800F2
:1000000078080020990A0008050B00087F280008DE
:10001000050B0008050B0008050B00080000000098
:10002000000000000000000000000000050B0008B8
:10003000050B000800000000050B0008050B000878
:10004000050B0008050B0008050B0008050B000850
:10005000050B0008050B0008050B0008050B000840
:10006000050B0008050B0008050B0008050B000830
:10007000050B0008050B0008050B0008050B000820
:10008000050B0008050B0008050B0008050B000810
:10009000050B0008050B0008050B0008050B000800
:1000A000050B0008050B0008050B0008050B0008F0
:1000B000050B0008050B0008050B0008050B0008E0
:1000C000050B0008050B0008050B0008050B0008D0
:1000D000050B0008050B0008050B0008050B0008C0
:1000E000050B0008050B0008050B0008050B0008B0
:1000F000050B0008050B0008050B0008050B0008A0
:10010000050B0008050B0008050B0008050B00088F
:10011000050B0008050B0008050B0008050B00087F
:10012000050B0008050B0008050B0008050B00086F
:10013000050B0008050B0008050B0008050B00085F
:10014000050B0008050B0008050B0008050B00084F
:10015000050B0008050B0008050B0008050B00083F
:10016000050B0008050B0008050B0008050B00082F
:10017000050B0008050B0008050B0008050B00081F
:10018000050B0008050B000880B582B000AF3A20CF
:10019000012101F0E1FA4CF233733B6002233B7121
:1001A00002237B710023BB710023FB713B465A483D
:1001B000194602F069FA584800210C2202F00EFBA1
:1001C000554801210C2202F009FB534804210C225E
:1001D00002F004FB504805210C2202F0FFFA4E48C1
:1001E00008210C2202F0FAFA4B4809210C2202F0F5
:1001F000F5FA49480A210C2202F0F0FA46480E218D
:100200000C2202F0EBFA44480F210C2202F0E6FA2D
:100210004FF680733B603B464048194602F034FA83
:100220003E4807210C2202F0D9FA3C4808210C2252
:1002300002F0D4FA394809210C2202F0CFFA3748EB
:100240000A210C2202F0CAFA34480B210C2202F0D7
:10025000C5FA32480C210C2202F0C0FA2F480D21B9
:100260000C2202F0BBFA2D480E210C2202F0B6FA45
:100270002A480F210C2202F0B1FA08233B603B46CA
:100280002648194602F000FA244803210C2202F005
:10029000A5FA80233B603B461F48194602F0F4F95B
:1002A0001D480A210C2202F099FA08233B60012321
:1002B0003B7100237B710023BB710023FB713B4624
:1002C0001548194602F0E0F94FF400533B60012352
:1002D0003B7101237B710023BB710023FB713B4603
:1002E0000D48194602F0D0F90B484FF4005102F0C6
:1002F00059FA4FF400633B6001233B7100237B718B
:100300000023BB710023FB713B460348194602F0F2
:10031000BBF90837BD4680BD000C0240001002400A
:1003200080B596B000AF0120012101F033FA01231E
:100330003B6000237B600923BB600023FB6000233C
:100340003B6100237B610023BB610023FB61002331
:100350003B6200237B621023BB620023FB6200230D
:100360003B6300237B630023BB630023FB634FF4E9
:1003700080533B6400237B640023BB640023FB6445
:100380003B463B653B467B6507F11C03184601F085
:1003900031FD0020012101F0C7FD5837BD4680BD69
:1003A00080B582B000AFFFF7EFFEFFF7B9FF052081
:1003B00000F05AFB5E48082102F002FA0A2000F021
:1003C00053FB5B48082102F0EDF91020012100F0F9
:1003D000C7F81E20B22100F0C3F82820062100F043
:1003E000BFF80020012100F0BBF8012043F2EF012B
:1003F00000F0B6F802204FF4C06100F0B1F8102010
:10040000002100F0ADF8052000F02EFB112046F68B
:10041000300100F0A5F8122040F6991100F0A0F884
:1004200026204FF4605100F09BF80720332100F0A4
:1004300097F80B2044F2103100F092F80C200521BF
:1004400000F08EF83020002100F08AF8312040F2D0
:10045000033100F085F8322040F2074100F080F8C7
:10046000332040F2013100F07BF8342040F20131BA
:1004700000F076F8352040F2034100F071F83620A4
:1004800040F2077100F06CF837204FF4806100F003
:1004900067F83A204FF4206100F062F83B204FF4F7
:1004A000805100F05DF80D200A2100F059F80E206F
:1004B0004FF4385100F054F81720002100F050F8A4
:1004C00044204FF46F4100F04BF84520002100F02C
:1004D00047F8462040F23F1100F042F84E2000213C
:1004E00000F03EF84F20002100F03AF822200021D1
:1004F00000F036F800237B6005E0002000F050F8A3
:100500007B6801337B607B68B3F5963FF5D3094880
:1005100000F076F84FF6FF7000F08CF8002000F045
:100520004FF84FF6FF7000F05BF80837BD4680BD0E
:10053000000C02403000002080B582B000AF0246BF
:100540000B46FA80BB80FB884E20194600F008F865
:10055000BB884F20194600F003F80837BD4680BD20
:1005600080B483B000AF02460B46FA71BB804FF0F7
:10057000C043FA7992B21A80034BBA881A800C37BA
:10058000BD465DF8047B70470000106080B400AF8A
:100590004FF0C04322221A80BD465DF8047B7047AD
:1005A00080B483B000AF0346FB80044BFA881A8006
:1005B0000C37BD465DF8047B704700BF000010603B
:1005C00080B483B000AF0346FB80FB889AB2034B34
:1005D0001A800C37BD465DF8047B70475000002040
:1005E00080B483B000AF0346FB80FB889AB2034B14
:1005F0001A800C37BD465DF8047B70470000002070
:1006000080B483B000AF7860034B7A681A600C370F
:10061000BD465DF8047B70474C00002080B400AFFD
:10062000034B1B681846BD465DF8047B704700BF4E
:100630004C00002080B584B000AF0346FB8000234F
:10064000FB6000200021FFF777FFFFF79FFF0023EB
:10065000FB6005E0064BFA881A80FB680133FB60FB
:10066000FB68B3F5963FF5D31037BD4680BD00BF9C
:100670000000106080B582B000AF02460B46FA80E1
:10068000BB80B7F90630002B0CDBB7F90630B3F5A9
:10069000A07F07DAB7F90430002B03DBB7F9043089
:1006A000EF2B00DD07E0FA88BB88104619460122CF
:1006B000002300F0DFF80837BD4680BD80B586B066
:1006C00000AF0B463A600246FA80BB8000237B6194
:1006D00000233B610023FB81FB88FB81BA88FB89F7
:1006E00010461946FFF728FF00237B6155E0FFF70E
:1006F0004DFF00233B613DE07B695B003A6813449A
:100700001B881A462A4B1B6899882A4BA3FB0103B6
:10071000DB089BB2DB00802199403B6941FA03F37F
:100720001340002B04D1224B1B689B880C2B11D942
:100730007B695B003A6813441B881A463B6942FA9E
:1007400003F303F00103002B0BD1194B1B689B88AB
:100750000C2B06D9184B1B889BB21846FFF720FFBD
:1007600005E0164B1B889BB21846FFF719FF3B6943
:1007700001333B610E4B1B689B881A463B699A42CA
:10078000BAD8FB890133FB81BA88FB891046194628
:10079000FFF7D2FE7B6901337B61054B1B68DB8869
:1007A0001A467B699A42A2D81837BD4680BD00BF61
:1007B0004C000020ABAAAAAA000000205000002094
:1007C00080B582B000AF13460246FA800A46BA806E
:1007D000FB70FB78203BFB700A4B1B681A68FB78A8
:1007E00008490968C98801FB03F35B001344F988D1
:1007F000BA88084611461A46FFF760FF0837BD461B
:1008000080BD00BF4C00002080B584B000AF03461F
:100810003960FB800023FB8114484FF4006101F034
:10082000C1FF16E03B681B78F988FA890846114633
:100830001A46FFF7C5FF0E4B1B689A88FB891344C5
:10084000FB81FB89B3F5A07F00D306E03B68013351
:100850003B603B681B78002BE4D104484FF40061F7
:1008600001F0AEFF1037BD4680BD00BF000C024056
:100870004C00002080B584B000AFF880B9807A8049
:100880007B700023FB60FA88BB8810461946FFF78F
:1008900053FE7B78002B12D1FFF778FE0023FB601C
:1008A00008E0164B1B889BB21846FFF779FEFB68E1
:1008B0000133FB607A88FB689A42F2D81AE0002381
:1008C000FB6013E0FFF762FE0C4B1B889BB21846DF
:1008D000FFF766FEBB880133BB80FA88BB881046F1
:1008E0001946FFF729FEFB680133FB607A88FB6835
:1008F0009A42E7D81037BD4680BD00BF50000020A7
:1009000080B58AB000AFF880B9807A803B80002340
:100910003B820023FB810023FB840023BB84002354
:100920007B8400233B840023FB830023BB830023C1
:100930007B8300233B830023FB820023BB820023B5
:100940007B827A88FB88D31A002BB8BF5B423B823C
:100950003A88BB88D31A002BB8BF5B42FB81FB8867
:10096000FB84BB88BB847A88FB889A4204D301232A
:100970007B8401233B8405E04FF6FF737B844FF6B5
:10098000FF733B843A88BB889A4204D30123FB83DC
:100990000123BB8305E04FF6FF73FB834FF6FF7324
:1009A000BB83B7F91020B7F90E309A4210DB002351
:1009B0007B840023BB833B8A7B83B7F91030DA0F3B
:1009C00013445B103B83FB89FB823B8ABB820FE0B5
:1009D00000233B840023FB83FB897B83B7F90E3024
:1009E000DA0F13445B103B833B8AFB82FB89BB829B
:1009F00000237B822EE0B7F92620B7F92430104679
:100A00001946FFF737FE3A8BFB8A13449BB23B83B0
:100A1000B7F91820B7F91A309A420EDB3A8B7B8B64
:100A2000D31A9BB23B83FA8C7B8C13449BB2FB841E
:100A3000BA8CFB8B13449BB2BB84FA8C3B8C134463
:100A40009BB2FB84BA8CBB8B13449BB2BB847B8A66
:100A500001337B82B7F91220B7F914309A42CADD0C
:100A60002837BD4680BD00BF80B485B000AF786038
:100A70000023FB607B6842F2107202FB03F3FB6011
:100A800002E0FB68013BFB60FB68002BF9D11437E7
:100A9000BD465DF8047B704780B582B000AF134B54
:100AA0007B60134B3B6007E03B681A1D3A607A6835
:100AB000111D796012681A603A680E4B9A42F3D39E
:100AC0000D480E494FF000028842B8BF40F8042B91
:100AD000FFF6FAAFDFF82800016841F47001016009
:100AE00000F060FD0837BD4680BD00BF3C5B0008DC
:100AF000000000204C0000204C000020740000206A
:100B000088ED00E080B400AFFEE700BF80B500AF25
:100B100000F07CFC00F0BCFC822000F07DF8034675
:100B2000002B01D004230AE0822000F093F88220F9
:100B30000721012200F0C8F800F0F4F8002318465D
:100B400080BD00BF80B582B000AF8220402100F0A0
:100B500021FA034603F080039AB22C4B1A802B4BE8
:100B60001B88002B34D000F0E5FB0346FB8000F02F
:100B700015FC0346BB80264B1B88FA889A4205D990
:100B8000234B1B88FA88D31A9BB204E0204B1A88A7
:100B9000FB88D31A9BB27B801E4B1B88BA889A4273
:100BA00005D91C4B1B88BA88D31A9BB204E0194B99
:100BB0001A88BB88D31A9BB23B807A883B8813443F
:100BC000052B05DD124BFA881A80124BBA881A8061
:100BD0000F4B1A880D4B5A800E4B1A880B4B9A807C
:100BE00000F000FC03461A46084BDA8082204B21B5
:100BF000012200F017F982204B21002200F012F9A7
:100C0000024B18460837BD4680BD00BF5800002083
:100C1000540000205600002080B582B000AF03468B
:100C2000FB71FB79184600F02FF803461A4640F690
:100C300011039A4207D0064B1B68002B01D10223F7
:100C400002E0012300E0002318460837BD4680BDBE
:100C50000400002080B582B000AF0346FB71FB7931
:100C600018460321022200F0DDF8022000F080FC8B
:100C7000FB7918460321002200F0D4F8002318461F
:100C80000837BD4680BD00BF80B584B000AF0346C5
:100C9000FB710023FB81FB791846002100F07AF9F3
:100CA0000346FB81FB891B02FB81FB79184601216E
:100CB00000F070F903461A46FB891343FB81FB8958
:100CC00018461037BD4680BD80B584B000AF1346CE
:100CD0000246FA710A46BA717B710023FB73FB79F5
:100CE0001846042100F056F90346FB737B79002B6C
:100CF00007D0BB79DB43DAB2FB7B1340DBB2FB737B
:100D000003E0FA7BBB791343FB73FA79FB7B104654
:100D100004211A4600F086F8002318461037BD4615
:100D200080BD00BF80B582B000AF0023FB71822080
:100D3000042100F02FF90346FB71FB7923F0030334
:100D4000FB71FB79822004211A4600F06BF88220A7
:100D50000A2100F01FF90346FB71FB7943F00303FE
:100D6000FB71FB7982200A211A4600F05BF8822091
:100D70002021492200F056F8022000F0F9FB8220E1
:100D80002121012200F04EF88220172100F002F903
:100D90000346FB71FB7923F01E03FB71FB79822074
:100DA00017211A4600F03EF882204121D22200F09D
:100DB00039F882204A21012200F034F882204B21A8
:100DC000012200F02FF882204B21002200F02AF8A7
:100DD00082205621012200F025F88220582101228C
:100DE00000F020F882204021012200F01BF8822030
:100DF0000B21FF2200F016F8094B0022DA80084B85
:100E0000DA88074B9A80064B9A88054B5A80044B28
:100E10005A88034B1A80002318460837BD4680BD08
:100E20005800002080B584B000AF13460246FA7126
:100E30000A46BA717B710023FB730023BB737B7975
:100E4000BB7307F10E030020194600F03FFB494831
:100E5000012102F03FF8484B4FF440521A6008E07D
:100E6000454B1B68591E444A1160002B01D10223D7
:100E70007CE04048414902F00BF90346002BEFD0DB
:100E8000FB793C481946002202F064F83A4B4FF4D3
:100E900040521A6008E0384B1B68591E364A1160F0
:100EA000002B01D1022361E03248354902F0C0F83D
:100EB0000346002BEFD0BB792E48194602F068F8A4
:100EC0002D4B4FF440521A6008E02B4B1B68591E03
:100ED000294A1160002B01D1022347E02548294906
:100EE00002F0D6F80346002B06D12248264902F02C
:100EF000CFF80346002BE8D01E48012102F058F835
:100F00002248012101F09EFE1B4B4FF440521A6013
:100F100008E0194B1B68591E174A1160002B01D1BC
:100F2000022323E019481A4901F0A8FE0346002BCA
:100F3000EFD0114B4FF4C0421A6000BF0D48124968
:100F400002F0A6F80346002BF8D00A48012101F070
:100F5000E1FF0E48002101F075FE0648002102F075
:100F600027F80A480A4901F0C5FEFB7B18461037EE
:100F7000BD4680BD00540040040000200100001068
:100F8000820007008000001004000010A0600240F2
:100F90000000202080B584B000AF02460B46FA71F5
:100FA000BB7100233B7300237B7307F10C0301200B
:100FB000194600F08BFA5F48012102F019F85D48EC
:100FC000012101F087FF5C4B4FF440521A6008E0AA
:100FD000594B1B68591E584A1160002B01D102233E
:100FE000A4E05448554902F053F80346002BEFD0D3
:100FF000FB7950481946002201F0ACFF4E4B4FF4EC
:1010000040521A6008E04C4B1B68591E4A4A116056
:10101000002B01D1022389E04648494902F008F833
:101020000346002BEFD0BB794248194601F0B0FFD0
:10103000414B4FF440521A6008E03F4B1B68591E69
:101040003D4A1160002B01D102236FE039483D4930
:1010500002F01EF80346002B06D136483A4902F04A
:1010600017F80346002BE8D03248012101F032FF87
:10107000314B4FF440521A6008E02F4B1B68591E49
:101080002D4A1160002B01D102234FE029482B4942
:1010900001F0FEFF0346002BEFD0FB7925481946EF
:1010A000012201F057FF244B4FF440521A6008E030
:1010B000214B1B68591E204A1160002B01D10223CD
:1010C00034E01C48214901F0B3FF0346002BEFD068
:1010D0001848012101F06CFF1D48012101F0B2FD0B
:1010E000154B4FF4C0421A6008E0134B1B68591EA1
:1010F000114A1160002B01D1022317E01448154951
:1011000001F0BCFD0346002BEFD00A48012101F09D
:1011100001FF0F48002101F095FD0648002101F074
:1011200047FF0B480B4901F0E5FD3B7B18461037A4
:10113000BD4680BD005400400400002001000010A6
:10114000820007008000001004000010020003006D
:10115000106002402000001080B584B000AF02464D
:101160000B46FA71BB710023FB7300233B73002312
:101170007B7307F10C030120194600F0A7F96448BE
:10118000012101F035FF6248012101F0A3FE614B0E
:101190004FF440521A6008E05E4B1B68591E5D4ACE
:1011A0001160002B01D10223ADE059485A4901F0EA
:1011B0006FFF0346002BEFD0FB79554819460022FC
:1011C00001F0C8FE534B4FF440521A6008E0514BF7
:1011D0001B68591E4F4A1160002B01D1022392E077
:1011E0004B484E4901F024FF0346002BEFD0BB795A
:1011F0004748194601F0CCFE464B4FF440521A6066
:1012000008E0444B1B68591E424A1160002B01D173
:10121000022378E03E48424901F03AFF0346002BA2
:1012200006D13B483F4901F033FF0346002BE8D08D
:101230003748012101F04EFE364B4FF440521A6000
:1012400008E0344B1B68591E324A1160002B01D153
:10125000022358E02E48304901F01AFF0346002BC4
:10126000EFD0FB792A481946012201F073FE294B81
:101270004FF440521A6008E0264B1B68591E254A5D
:101280001160002B01D102233DE02148264901F0E5
:10129000CFFE0346002BEFD01D48012101F088FE50
:1012A0002248012101F0CEFC1A4B4FF4C0421A60D3
:1012B00008E0184B1B68591E164A1160002B01D11B
:1012C000022320E019481A4901F0D8FC0346002BFC
:1012D000EFD00F48012101F01DFE1448002101F05C
:1012E000B1FC0B48002101F063FE1048104901F0E9
:1012F00001FD3B7BFB737B7B3B73FB7B7B7307F1CC
:101300000C031B889BB218461037BD4680BD00BF3A
:10131000005400400400002001000010820007007B
:101320008000001004000010020003001060024062
:101330002000001080B592B000AF00233B64002372
:101340007B6419E082204D21FFF706FF03461A4611
:101350007B6C9B0007F148010B4443F8482C7B6CE5
:101360009B0007F14802134453F8483C3A6C13447D
:101370003B647B6C01337B647B6C0F2BE2DD3B6C4D
:101380001B113B643B6C002B01DC00233B643B6C7A
:101390009BB218464837BD4680BD00BF80B582B0BD
:1013A00000AF00233B6000237B600AE082204F21D6
:1013B000FFF7D2FE03463A6813443B607B68013373
:1013C0007B607B680F2BF1DD3B681B113B603B684A
:1013D000002B01DC00233B603B689BB218460837BA
:1013E000BD4680BD80B582B000AF82205121FFF79D
:1013F000B3FE03467B607B68002B01D100237B603A
:101400007B689BB218460837BD4680BD80B582B068
:1014100000AF4FF40010012100F0DAF902200121A1
:1014200000F09AF94FF48040012100F0EFF94FF4F9
:101430000010012100F008FA4FF40010002100F024
:1014400003FA4FF480733B6002233B7102237B71EC
:101450000123BB710023FB713B460C48194601F088
:1014600013F94FF400733B603B460848194601F0FE
:101470000BF906480821042201F0B0F903480921BC
:10148000042201F0ABF90837BD4680BD00040240DC
:1014900080B584B000AF0023BB804BF6FF73FB80A8
:1014A00000233B814FF480637B814FF48043BB81F9
:1014B000044B3B603B460448194601F049FC103799
:1014C000BD4680BDA08601000054004080B592B0AA
:1014D00000AF03463960FB714FF40010012100F0AA
:1014E0003BF94FF00073FB601E4B3B613B687B6137
:1014F00000233B624FF480637B620023BB620023C6
:10150000FB6200233B6300237B630423BB63002354
:10151000FB6300233B6400237B64FB79012B0DD12B
:101520000023BB610223FB610F4801F063FA07F15E
:101530000C030D48194601F02FFB0FE0FB79002B3F
:101540000CD14023BB610123FB61084801F052FA32
:1015500007F10C030548194601F01EFB4837BD464C
:1015600080BD00BF1054004010600240A0600240E7
:1015700080B485B000AF78600023FB607B68084AC8
:1015800002FB03F3FB6002E0FB68013BFB60FB68CE
:10159000002BF9D11437BD465DF8047B704700BFBE
:1015A000A086010080B500AF01F076F9FFF7AEFA32
:1015B000FEF7F6FE4FF6FF70FFF73CF80348FFF723
:1015C0001FF800F0DBFC00F04BFFFCE728000020D8
:1015D00080B485B000AF78600023FB607B68084A68
:1015E00002FB03F3FB6002E0FB68013BFB60FB686E
:1015F000002BF9D11437BD465DF8047B704700BF5E
:10160000A086010080B489B000AF78600023BB6180
:1016100000237B610023FB6102233B610023FB600D
:101620000223BB60484B9B6803F00C03BB61BB69A2
:10163000042B07D0082B09D0002B3FD17B68434AED
:101640001A603FE07B68424A1A603BE03E4B5B68B1
:1016500003F480039B0DFB603B4B5B6803F03F038F
:10166000BB60FB68002B0DD0394ABB68B2FBF3F2BC
:10167000354B596847F6C0730B409B0903FB02F3D7
:10168000FB610CE0314ABB68B2FBF3F22E4B5968A8
:1016900047F6C0730B409B0903FB02F3FB612A4B27
:1016A0005B6803F440331B0C01335B003B61FA6958
:1016B0003B69B2FBF3F27B681A6003E07B68234A64
:1016C0001A6000BF204B9B6803F0F003BB61BB694D
:1016D0001B09BB611F4ABB6913441B78DBB27B61EA
:1016E0007B681A687B69DA407B685A60164B9B6896
:1016F00003F4E053BB61BB699B0ABB61154ABB693C
:1017000013441B78DBB27B617B685A687B69DA40E3
:101710007B689A600C4B9B6803F46043BB61BB69B8
:101720005B0BBB610B4ABB6913441B78DBB27B616B
:101730007B685A687B69DA407B68DA602437BD468B
:101740005DF8047B704700BF003802400024F400BD
:1017500040787D010800002080B483B000AF78603D
:101760000B46FB70FB78002B06D0094B084A116B27
:101770007A680A431A6306E0054B054A116B7A68DA
:10178000D2430A401A630C37BD465DF8047B7047AC
:101790000038024080B483B000AF78600B46FB7025
:1017A000FB78002B06D0094B084A916B7A680A43F4
:1017B0009A6306E0054B054A916B7A68D2430A406A
:1017C0009A630C37BD465DF8047B704700380240D1
:1017D00080B483B000AF78600B46FB70FB78002BC1
:1017E00006D0094B084A116C7A680A431A6406E06D
:1017F000054B054A116C7A68D2430A401A640C37CB
:10180000BD465DF8047B70470038024080B483B069
:1018100000AF78600B46FB70FB78002B06D0094BBD
:10182000084A516C7A680A435A6406E0054B054A37
:10183000516C7A68D2430A405A640C37BD465DF851
:10184000047B70470038024080B483B000AF7860FA
:101850000B46FB70FB78002B06D0094B084A116A37
:101860007A680A431A6206E0054B054A116A7A68EB
:10187000D2430A401A620C37BD465DF8047B7047BC
:101880000038024080B483B000AF78600B46FB7034
:101890007B68FA781A70012318460C37BD465DF84C
:1018A000047B704780B485B000AF78603960002356
:1018B000FB600AE07B685A1C7A603A68511C396008
:1018C00012781A70FB680133FB603B681B78002BB1
:1018D000F0D1FB6818461437BD465DF8047B7047AD
:1018E00080B586B000AFF8607A603B600B46FB7253
:1018F00000237B617B68013B7B603B68092B10D92F
:101900003A681E4BA3FB0213DB08FA7AF86811460B
:101910007A68FFF7E5FF78617B69FA681344FB603A
:1019200011E00DE0FB7AF8681946FFF7ABFFFB68A2
:101930000133FB607B6901337B617B68013B7B602A
:101940007B68002BEEDC39680C4BA3FB0123DA0823
:1019500013469B0013445B00CA1AD3B23033DBB288
:10196000F8681946FFF78EFF03467A6913447B61D6
:101970007B6918461837BD4680BD00BFCDCCCCCCA6
:1019800080B586B000AFF8607A603B600B46FB72B2
:1019900000237B613B68002B03DA3B685B423B61C1
:1019A00001E03B683B617B68013B7B603B69092B45
:1019B00021D93B68002B0DDA3A692F4BA3FB0213A8
:1019C000DB085B42FA7AF86811467A68FFF7D8FFBD
:1019D00078610BE03A69284BA3FB0213DB08FA7A23
:1019E000F86811467A68FFF7CBFF78617B69FA687F
:1019F0001344FB6026E03B68002B03DA7B68013B65
:101A00007B600EE00DE0FB7AF8681946FFF73AFFBD
:101A1000FB680133FB607B6901337B617B68013BC1
:101A20007B607B68002BEEDC3B68002B0ADAF868F1
:101A30002D21FFF727FF03467A6913447B61FB687A
:101A40000133FB6039690C4BA3FB0123DA08134611
:101A50009B0013445B00CA1AD3B23033DBB2F86880
:101A60001946FFF70FFF03467A6913447B617B69D0
:101A700018461837BD4680BDCDCCCCCC80B588B0DB
:101A800002AFF8607A600A46FA72BB7200237B618B
:101A90007B68013B7B603B6A1B09002B12D03B6AD1
:101AA0001909FA7ABB7A0091F86811467A68FFF74B
:101AB000E5FF03467A6913447B617B69FA68134446
:101AC000FB6011E00DE0FB7AF8681946FFF7DAFEDB
:101AD000FB680133FB607B6901337B617B68013B01
:101AE0007B607B68002BEEDC3B6A03F00F03092B65
:101AF0000BD83B6ADBB203F00F03DBB23033DBB24F
:101B0000F8681946FFF7BEFE19E0BB7A002B0BD030
:101B10003B6ADBB203F00F03DBB23733DBB2F868AA
:101B20001946FFF7AFFE0AE03B6ADBB203F00F0392
:101B3000DBB25733DBB2F8681946FFF7A3FE7B69C7
:101B400001337B617B6918461837BD4680BD00BFF5
:101B500080B58AB002AFF860B9607A603B6000235C
:101B6000BB6100237B61FB68002B03D0FB68002274
:101B70001A70F8E0F7E07B681B78252B0BD0FB6828
:101B80005A1CFA607A68511C796012781A707B6965
:101B900001337B61E7E07B6801331B78252B0BD198
:101BA000FB685A1CFA6025221A707B6802337B603E
:101BB0007B6901337B61D6E02023FB770023BB7771
:101BC0007B6801337B607B681B78302B05D1302329
:101BD000FB777B6801337B600FE00EE0BB7F1A462A
:101BE000920013445B00DAB27B681B781344DBB2CB
:101BF000303BBB777B6801337B607B681B782F2B86
:101C000003D97B681B78392BE8D9BA7F7B691344E9
:101C10001A46BB689A4205D9BB68DAB27B69DBB267
:101C2000D31ABB777B681B78583B202B00F28D8042
:101C300001A252F823F000BF051D00084B1D00084B
:101C40004B1D00084B1D00084B1D00084B1D0008D4
:101C50004B1D00084B1D00084B1D00084B1D0008C4
:101C60004B1D0008351D0008BD1C00084B1D000859
:101C70004B1D00084B1D00084B1D0008BD1C000833
:101C80004B1D00084B1D00084B1D00084B1D000894
:101C90004B1D00084B1D00084B1D00084B1D000884
:101CA0004B1D0008211D00084B1D0008D31C000817
:101CB0004B1D00084B1D0008E91C0008BA7F3B685B
:101CC000191D39601B68F97FF868FFF759FEB86184
:101CD0003EE0BA7F3B68191D39601B68F97FF868E0
:101CE000FFF7FEFDB86133E0BA7F3B68191D39602C
:101CF0001968FB7F0091F86819460023FFF7BEFEC4
:101D0000B86125E0BA7F3B68191D39601968FB7F0F
:101D10000091F86819460123FFF7B0FEB86117E09B
:101D20003B681A1D3A601B68F8681946FFF7BAFD50
:101D3000B8610DE03B681A1D3A601B68DBB2F868B9
:101D40001946FFF79FFDB86102E04FF0FF3325E031
:101D50007B6801337B60BB69FA681344FB607A6976
:101D6000BB6913447B617B681B78002B04D07A69C4
:101D7000BB689A42FFF4FFAE7A69BB689A4203D20D
:101D8000FB6800221A7008E0FB68013BFB60FB68FF
:101D900000221A707B69013B7B617B691846203702
:101DA000BD4680BD80B584B000AFF860B9607A6090
:101DB000F8686421BA687B68FFF7CAFE03461846D4
:101DC0001037BD4680BD00BF0EB480B585B000AFF2
:101DD000786007F12003BB607868F969BA68FFF79B
:101DE000E1FFF860FB6818461437BD46BDE8804047
:101DF00003B0704780B483B000AF78604FF02043E9
:101E00007A681268796848687968896808437968E7
:101E1000C9680843796809690843796849690843CA
:101E20007968896908437968C96908437968096AE2
:101E300008437968496A08437968896A0843796878
:101E4000C96A08437968096B014343F822107B682B
:101E50009B68082B0DD14FF020437A6812684FF031
:101E600020417868006851F8201041F0400143F8A3
:101E700022104FF020437A68126801327968496B6A
:101E800008687968496B4968090108437968496BB2
:101E90008968090208437968496BC96809040843DD
:101EA0007968496B0969090508437968496B49698B
:101EB000090608437968496B8969014343F8221090
:101EC0007B68DB6AB3F5804F20D1164B7A681268C5
:101ED0007968896B08687968896B496809010843E2
:101EE0007968896B8968090208437968896B09698F
:101EF000090508437968896B4969090608437968C7
:101F0000896B8969014343F8221006E0054B7A6822
:101F100012686FF0704143F822100C37BD465DF82F
:101F2000047B7047040100A080B483B000AF7860E8
:101F30000B46FB70FB78002B0CD04FF020434FF08A
:101F40002042796852F8212042F001017A6843F872
:101F500022100BE04FF020424FF02043796853F8F5
:101F60002110054B0B40796842F821300C37BD46F3
:101F70005DF8047B704700BFFEFF0F0090B59DB079
:101F800000AF0023BB6600237B66002387F8633025
:101F90000023FB654FF6FF70FEF74CFB4FF47840D3
:101FA000FEF70EFB6420FFF713FB42E20023BB6643
:101FB00000237B66002387F86F30B2E097F86F202C
:101FC000524B33F822300A3B98B297F86F304F4AA1
:101FD0009B001344598897F86F204C4B33F82230FC
:101FE0000A339AB297F86F30484C9B0023445B88C1
:101FF000FEF786FC97F86F20444B33F8220097F8E1
:102000006F30424A9B0013445B880A3B99B297F8B1
:102010006F203E4B33F8222097F86F303B4C9B00EB
:1020200023445B880A339BB2FEF76AFCFEF78AFD05
:10203000F865FB6D1B88002BF8D00A20FFF7C8FA63
:10204000002387F86E3024E097F86E40FFF772F9AE
:1020500003461A46A30007F170010B4443F8702CA5
:1020600097F86E309B0007F17002134453F8703CF0
:10207000BA6E1344BB66FFF791F903467A6E1344B8
:102080007B660220FFF7A4FA97F86E30013387F8D9
:102090006E3097F86E300F2BD6D9BB6E1B11BB6616
:1020A0007B6E1B117B6697F86F30032B30D801A134
:1020B00051F823F0C5200008D7200008E9200008C7
:1020C000FB200008BB6E9BB2A7F850307B6E9BB222
:1020D000A7F852301DE0BB6E9BB2A7F84C307B6E68
:1020E0009BB2A7F84E3014E0BB6E9BB2A7F8483005
:1020F0007B6E9BB2A7F84A300BE0BB6E9BB2A7F891
:1021000044307B6E9BB2A7F8463002E038000020D6
:1021100000BFC820FFF75CFA97F86F30013387F8EB
:102120006F3097F86F30032B7FF648AFBC4B9B881E
:102130001A46BB4B1B88D31A06EE903AB8EEE67AE5
:10214000B7F84C301A46B7F85030D31A06EE903A2A
:10215000F8EEE67AC7EE277AC7ED167AB04B9B8980
:102160001A46AF4B1B89D31A07EE903AB8EEE77ABE
:10217000B7F844301A46B7F84830D31A06EE903A0A
:10218000F8EEE67AC7EE277AC7ED157A97ED167A5C
:10219000D7ED157A37EE277AF0EE007AC7EE277A78
:1021A000A04BC3ED007A9E4B5B891A469C4B5B8823
:1021B000D31A07EE903AB8EEE77AB7F84A301A46E3
:1021C000B7F85230D31A06EE903AF8EEE67AC7EE38
:1021D000277AC7ED167A924BDB891A46904BDB883B
:1021E000D31A07EE903AB8EEE77AB7F846301A46B7
:1021F000B7F84E30D31A06EE903AF8EEE67AC7EE0C
:10220000277AC7ED157A97ED167AD7ED157A37EE5E
:10221000277AF0EE007AC7EE277A824BC3ED017A77
:10222000B7F8443007EE903AB8EE677A7D4BD3EDBD
:10223000007A27EE277A7A4B9B8906EE903AF8EEE1
:10224000667A77EE677AC7ED167AD7ED167AFDEEE5
:10225000E77A17EE903A9AB2724B1A81B7F8523079
:1022600007EE903AB8EE677A6E4BD3ED017A27EE1F
:10227000277A6B4B5B8806EE903AF8EE667A77EE3B
:10228000677AC7ED167AD7ED167AFDEEE77A17EE84
:10229000903A9AB2634B5A81614B1B8A0A3B98B2BF
:1022A0005F4B598A5E4B1B8A0A339AB25C4B5B8A3E
:1022B000FEF726FB5A4B188A594B5B8A0A3B99B2A8
:1022C000574B1A8A564B5B8A0A339BB2FEF718FBB0
:1022D000FEF738FCF865FB6D1B88002BF8D00A2050
:1022E000FFF776F90023BB6600237B66002387F89F
:1022F0006E3013E0FFF71EF80346BA6E1344BB6658
:10230000FFF74CF803467A6E13447B660220FFF712
:102310005FF997F86E30013387F86E3097F86E30BA
:102320000F2BE7D9BB6E1B11BB667B6E1B117B6647
:10233000BB6E9BB2A7F840307B6E9BB2A7F84230D1
:10234000B7F8403007EE903AB8EEE77A354BD3ED68
:10235000007A27EE277A334B1B891BB206EE903AA0
:10236000F8EEE67A77EE677AFDEEE77A17EE903AC6
:102370009BB2A7F84030B7F8423007EE903AB8EE7B
:10238000E77A284BD3ED017A27EE277A254B5B8934
:102390001BB206EE903AF8EEE67A77EE677AFDEE3B
:1023A000E77A17EE903A9BB2A7F84230B7F8403080
:1023B0001A461B4B1B8A0A339A4217DCB7F8403087
:1023C0001A46174B1B8A0A3B9A420FDBB7F842307A
:1023D0001A46134B5B8A0A339A4207DCB7F842303D
:1023E0001A460F4B5B8A0A3B9A421FDA002387F892
:1023F0006330FEF713F90346DB88DB009BB2184617
:102400000949FEF701FAC820FFF7E2F84FF6FF701E
:10241000FEF710F94FF49670FFF7DAF809E000BF05
:102420003800002060000020C85A0008012387F807
:10243000633097F86330002B3FF4B8ADFEF7EEF849
:102440000346DB88DB009BB218460449FEF7DCF943
:10245000C820FFF7BDF87437BD4690BDE45A0008A8
:1024600080B590B000AF0023BB63012387F83F30F5
:102470007E4B00221A807D4B00225A807C4B00222A
:102480001A807B4B00225A804FF47840FEF798F870
:10249000FEF758FBB8630A20FFF79AF8BB6B1B885E
:1024A000002BF5D0BB6B5A88704B1A80BB6B9A8897
:1024B0006E4B5A806D4B1B88B3F57A6F0CD86B4B03
:1024C0001B88632B08D9694B5B88B3F57A6F03D8F7
:1024D000664B5B88632B00D8C7E097F83F30002B32
:1024E00002D0002387F83F301F20FEF769F85F4BCA
:1024F0001B883A1D10465F491A46FFF765FCFEF738
:102500008DF80346DB889B009AB23B1D10461946A6
:10251000FEF77AF9554B5B883A1D104656491A4624
:10252000FFF752FCFEF77AF80346DB881A46920062
:1025300013449AB23B1D10461946FEF765F94B4B02
:102540001B8806EE903AB8EEE67A4C4BD3ED007A53
:1025500027EE277A494B1B891BB206EE903AF8EE1C
:10256000E67A77EE677AFDEEE77A17EE903A9AB25E
:102570003E4B1A803D4B5B8807EE903AB8EEE77A07
:102580003E4BD3ED017A27EE277A3C4B5B891BB299
:1025900006EE903AF8EEE67A77EE677AFDEEE77AA5
:1025A00017EE903A9AB2314B5A80304B1B88B3F5F4
:1025B000A07F03D32D4B40F23F121A802B4B5B8838
:1025C000EF2B02D9294BEF225A80284B1B883A1D4A
:1025D00010462B491A46FFF7F7FBFEF71FF8034694
:1025E000DB881A46D200D31A9AB23B1D1046194610
:1025F000FEF70AF91D4B5B883A1D104621491A4621
:10260000FFF7E2FBFEF70AF80346DB88DB009AB22D
:102610003B1D10461946FEF7F7F84FF47840FDF7DA
:10262000CFFF134B1B88002B0CD1114B5B88002B69
:1026300008D10E4B1A880E4B1A800C4B5A880C4B43
:102640005A8012E00A4B1888094B5988074B1A88A0
:10265000064B5B88FEF754F9044B1A88044B1A802A
:10266000024B5A88024B5A8012E711E77000002093
:102670006C000020FC5A00080C5B00086000002081
:102680001C5B00082C5B000880B487B000AF78604A
:10269000396000237B6100233B610023FB60002342
:1026A0007B6176E07B69012202FA03F33B613B68C0
:1026B0001A683B691340FB60FA683B699A4265D12E
:1026C0007B681A687B695B00032101FA03F3DB4333
:1026D0001A407B681A607B681A683B681B79194648
:1026E0007B695B0001FA03F31A437B681A603B685D
:1026F0001B79012B03D03B681B79022B2ED17B6801
:102700009A687B695B00032101FA03F3DB431A40FB
:102710007B689A607B689A683B685B7919467B693D
:102720005B0001FA03F31A437B689A607B685A687E
:102730007B699BB2012101FA03F3DB431A407B68FA
:102740005A607B685A683B689B7919467B699BB2E3
:1027500001FA03F39BB21A437B685A607B68DA681C
:102760007B699BB25B00032101FA03F3DB431A4050
:102770007B68DA607B68DA683B68DB7919467B69DD
:102780005B0001FA03F31A437B68DA607B6901336B
:102790007B617B690F2B85D91C37BD465DF8047BB7
:1027A000704700BF80B483B000AF78600B467B8079
:1027B0007B687A881A830C37BD465DF8047B7047C6
:1027C00080B483B000AF78600B467B807B687A88EA
:1027D0005A830C37BD465DF8047B704780B485B0E2
:1027E00000AF786013460A467A807B700023FB6056
:1027F0000023BB607A787B8803F007039B0002FA12
:1028000003F3FB607B88DB089BB21A467B88DB08FE
:102810009BB219467B68083153F821107B8803F07E
:1028200007039B000F2000FA03F3DB4319407B688A
:10283000083243F822107B88DB089BB21A467B687B
:10284000083253F82220FB681343BB607B88DB0807
:102850009BB21A467B680832B96843F822101437D5
:10286000BD465DF8047B7047ABBE00F002B80020A7
:102870007047002A00F00180106001207047069820
:102880000188044A914240F003800430069070476A
:10289000FEE70000ABBE000080B500AF154B154A47
:1028A000D2F8882042F47002C3F88820124B124AF2
:1028B000126842F001021A600F4B00229A600E4A21
:1028C0000D4B1B6823F0847323F4803313600A4B91
:1028D0000A4A5A60084B084A126822F480221A6099
:1028E000054B0022DA6000F00BF8024B4FF000625B
:1028F0009A6080BD00ED00E00038024010300024F6
:1029000080B483B000AF00237B6000233B60354B75
:10291000344A126842F480321A60324B1B6803F466
:1029200000333B607B6801337B603B68002B03D145
:102930007B68B3F5A06FF0D12A4B1B6803F400331A
:10294000002B02D001233B6001E000233B603B6889
:10295000012B42D1234B234A126C42F080521A645D
:10296000214B214A126842F480421A601D4B1D4AD5
:1029700092689A601B4B1B4A926842F400429A602C
:10298000184B184A926842F4A0529A60154B174AA5
:102990005A60144B134A126842F080721A6000BFEA
:1029A000104B1B6803F00073002BF9D0104B40F262
:1029B00005621A600B4B0B4A926822F003029A6080
:1029C000084B084A926842F002029A6000BF054B29
:1029D0009B6803F00C03082BF9D10C37BD465DF85A
:1029E000047B7047003802400070004008544007E4
:1029F000003C024080B483B000AF78607B681B6805
:102A000023F001027B681A607B6800221A607B68F1
:102A100000225A607B6800229A607B680022DA609C
:102A20007B6800221A617B6821225A617A68454BD3
:102A30009A4203D1444B3D229A607EE07A68434B30
:102A40009A4204D1404B4FF474629A6075E07A6800
:102A50003F4B9A4204D13C4B4FF474129A606CE0A5
:102A60007A683C4B9A4204D1374B4FF074629A60BB
:102A700063E07A68384B9A4203D1334B374ADA60C5
:102A80005BE07A68364B9A4203D12F4B354ADA60C5
:102A900053E07A68344B9A4203D12B4B334ADA60C5
:102AA0004BE07A68324B9A4204D1274B4FF03D52AB
:102AB000DA6042E07A682F4B9A4203D12E4B3D22D6
:102AC0009A603AE07A682D4B9A4204D12A4B4FF42F
:102AD00074629A6031E07A68294B9A4204D1264B9D
:102AE0004FF474129A6028E07A68264B9A4204D117
:102AF000214B4FF074629A601FE07A68224B9A4231
:102B000003D11D4B154ADA6017E07A681F4B9A42D1
:102B100003D1194B134ADA600FE07A681C4B9A42D2
:102B200003D1154B114ADA6007E07A68194B9A42D3
:102B300003D1114B4FF03D52DA600C37BD465DF8C2
:102B4000047B704710600240006002402860024031
:102B50004060024058600240706002403D0000202A
:102B600088600240400F0020A060024000003D202D
:102B7000B8600240106402400064024028640240D1
:102B8000406402405864024070640240886402401D
:102B9000A0640240B864024080B485B000AF7860A1
:102BA00039600023FB607B681B68FB60FA68244B7C
:102BB0001340FB603B681A683B68DB681A433B685C
:102BC0005B691A433B689B691A433B68DB691A439C
:102BD0003B681B6A1A433B685B6A1A433B689B6A03
:102BE0001A433B685B6B1A433B689B6B1343FA6861
:102BF0001343FB607B68FA681A607B685B69FB6063
:102C0000FB6823F00703FB603B68DA6A3B681B6BD9
:102C10001343FA681343FB607B68FA685A613B68A8
:102C20001A697B685A603B685A687B689A603B689F
:102C30009A687B68DA601437BD465DF8047B70479C
:102C40003F801CF080B483B000AF78600B46FB700F
:102C5000FB78002B06D07B681B6843F001027B6881
:102C60001A6005E07B681B6823F001027B681A602C
:102C70000C37BD465DF8047B704700BF80B487B059
:102C800000AF786039600023FB750023FB607A6831
:102C9000154B9A4202D8154B3B6101E0144B3B6146
:102CA0003B6803F00053002B03D03B695B68FB607B
:102CB00002E03B691B68FB60FB6823F0F02323F014
:102CC0008213FB60FA683B681340002B02D001239B
:102CD000FB7501E00023FB75FB7D18461C37BD46E4
:102CE0005DF8047B704700BF0F6402400060024043
:102CF0000064024080B485B000AF786039607A68C3
:102D0000104B9A4202D8104BFB6001E00F4BFB6066
:102D10003B6803F00053002B07D03B6823F0F023FF
:102D200023F08213FA68D36006E03B6823F0F023B7
:102D300023F08213FA6893601437BD465DF8047B74
:102D4000704700BF0F640240006002400064024010
:102D500080B58AB000AF786039600023FB8400231F
:102D60007B840423BB84574BFB617B689B88FB847B
:102D7000FB8C23F03F03FB8407F10C031846FEF79E
:102D800041FC7B69FB61FA694F4BA3FB02139B0C6F
:102D90007B84FA8C7B8C1343FB847B68FA8C9A804F
:102DA0007B681B889BB223F001039AB27B681A8070
:102DB0000023FB843B681A68444B9A4215D83B6851
:102DC0001B685B00FA69B2FBF3F3BB84BB8C032B7B
:102DD00001D80423BB84FA8CBB8C1343FB847B8C0B
:102DE00001339AB27B681A8440E03B68DA884BF67C
:102DF000FF739A4209D13B681A6813465B0013447B
:102E0000FA69B2FBF3F3BB840EE03B681A68134621
:102E10009B0013449A001344FA69B2FBF3F3BB849A
:102E2000BB8C43F48043BB84BB8CC3F30B03002BEC
:102E300003D1BB8C43F00103BB84BA8CFB8C1343DE
:102E40009BB26FEA43436FEA5343FB847B8C4FF49E
:102E5000967202FB03F31E4A82FB03129211DB17E8
:102E6000D31A9BB201339AB27B681A847B68FA8CBE
:102E70009A837B681B889BB243F001039AB27B68FC
:102E80001A807B681B88FB84FB8C23F4816323F00E
:102E90000203FB843B689A883B685B8913439AB2C0
:102EA000FB8C1343FB847B68FA8C1A803B689A89FD
:102EB0003B681B8913439AB27B681A812837BD4649
:102EC00080BD00BF00127A0083DE1B43A086010094
:102ED000D34D621080B483B000AF78600B46FB70B6
:102EE000FB78002B08D07B681B889BB243F480736F
:102EF0009AB27B681A8007E07B681B889BB223F438
:102F000080739AB27B681A800C37BD465DF8047BEB
:102F1000704700BF80B483B000AF78600B46FB7091
:102F2000FB78002B08D07B681B889BB243F40073AE
:102F30009AB27B681A8007E07B681B889BB223F4F7
:102F400000739AB27B681A800C37BD465DF8047B2B
:102F5000704700BF80B483B000AF786013460A4664
:102F6000FA70BB70BB78002B04D0FB7843F00103F0
:102F7000FB7003E0FB7823F00103FB70FB789AB24F
:102F80007B681A820C37BD465DF8047B704700BF32
:102F900080B483B000AF78600B46FB70FB789AB2C8
:102FA0007B681A820C37BD465DF8047B704700BF12
:102FB00080B483B000AF78600B46FB70FB78002BC9
:102FC00008D07B689B889BB243F400639AB27B680D
:102FD0009A8007E07B689B889BB223F400639AB2D7
:102FE0007B689A800C37BD465DF8047B704700BF54
:102FF00080B483B000AF78600B46FB70FB78002B89
:1030000008D07B689B889BB243F480539AB27B685C
:103010009A8007E07B689B889BB223F480539AB226
:103020007B689A800C37BD465DF8047B704700BF13
:1030300080B487B000AF7860396000233B61002323
:10304000FB600023BB600023FB757B689B8A9BB2FF
:10305000FB607B681B8B9BB2BB60BB681B04BB60C7
:10306000FA68BB68134323F07F433B613A693B68CE
:103070001A403B689A4202D10123FB7501E000230C
:10308000FB75FB7D18461C37BD465DF8047B704719
:1030900080B487B000AF786039600023FB750023EF
:1030A0003B610023FB607B68FB603B681B0F3B615F
:1030B0003B6823F07F433B603B69002B03D0FB68F8
:1030C0001433FB6005E03B681B0C3B60FB68183366
:1030D000FB60FB681A683B681340002B02D0012399
:1030E000FB7501E00023FB75FB7D18461C37BD46D0
:1030F0005DF8047B704700BF000000000000000086
:1031000000000000000000000000000000000000BF
:1031100000000000000000000000000000000000AF
:10312000000000000000000000008001800180011C
:103130008001800180018001800180018001800187
:10314000800180010000000080018001000000007B
:10315000000000000000000000000000CC00CC00D7
:10316000CC00CC00CC00CC0000000000000000002F
:10317000000000000000000000000000000000004F
:10318000000000000000000000000000000000003F
:1031900000000000600C600C600C30063006FE1F62
:1031A000FE1F300638071803FE1FFE1F1803180302
:1031B0008C018C018C01000000008000E003F80FFE
:1031C0009C0E8C1C8C188C009800F801E007800E77
:1031D000801C8C188C189C18B80CF00FE003800031
:1031E00080000000000000000000000000000E1839
:1031F0001B0C110C11061106110311039B018E010A
:10320000C038C06C60446044304430441844186C8A
:103210000C380000000000000000E001F003380757
:10322000180618063003F001F000F8009C310E3348
:10323000061E061C061C063FFC73F0210000000061
:103240000000000000000000000000000C000C0066
:103250000C000C000C000C0000000000000000003E
:10326000000000000000000000000000000000005E
:1032700000000000000000000000000200038001C8
:10328000C000C0006000600030003000300030003E
:10329000300030003000300060006000C000C0002E
:1032A0008001000300020000000020006000C00058
:1032B00080018001000300030006000600060006EE
:1032C00000060006000600060003000380018001DE
:1032D000C0006000200000000000000000000000AE
:1032E00000000000C000C000D806F807E00130036D
:1032F000380700000000000000000000000000008F
:1033000000000000000000000000000000000000BD
:103310000000000080018001800180018001FC3FED
:10332000FC3F8001800180018001800100000000DD
:10333000000000000000000000000000000000008D
:10334000000000000000000000000000000000007D
:10335000000000000000000000008001800100016A
:1033600000018000000000000000000000000000DC
:10337000000000000000000000000000000000004D
:10338000E007E0070000000000000000000000006F
:10339000000000000000000000000000000000002D
:1033A000000000000000000000000000000000001D
:1033B00000000000000000000000C000C00000008D
:1033C00000000000000000000000000C000C0006DF
:1033D0000006000600030003000380038001800153
:1033E0008001C000C000C00060006000000000005C
:1033F00000000000000000000000E003F007380EAD
:10340000180C0C180C180C180C180C180C180C189C
:103410000C180C18180C380EF007E0030000000020
:103420000000000000000000000000018001C00159
:10343000F0019801880180018001800180018001F4
:103440008001800180018001800180010000000076
:1034500000000000000000000000E003F80F180C5E
:103460000C180C1800180018000C0006000380014E
:10347000C000600030001800FC1FFC1F00000000AE
:1034800000000000000000000000E001F807180E36
:103490000C0C0C0C000C0006C003C007000C00183C
:1034A00000180C180C18180CF807E00300000000B6
:1034B00000000000000000000000000C000E000FE3
:1034C000000F800DC00C600C600C300C180C0C0C44
:1034D000FC3FFC3F000C000C000C000C0000000046
:1034E00000000000000000000000F80FF80F1800B6
:1034F00018000C00EC03FC071C0E001C0018001840
:1035000000180C181C0C180EF807E003000000004F
:1035100000000000000000000000C007F00F381C91
:10352000181818000C00CC03EC0F3C0E1C1C0C18D7
:103530000C180C18181C380EF007E00300000000EF
:1035400000000000000000000000FC1FFC1F000C39
:1035500000060006000380038001C001C000E000F7
:10356000600060007000300030003000000000009B
:1035700000000000000000000000E003F007380E2B
:10358000180C180C180C3806F007F007180C0C185B
:103590000C180C180C18380CF80FE0030000000091
:1035A00000000000000000000000E003F007380EFB
:1035B0001C0C0C180C180C181C1C381EF81BE019DD
:1035C0000018000C000C1C0EF807F00100000000B1
:1035D00000000000000000000000000000000000EB
:1035E00000000000800180010000000000000000D9
:1035F00000000000000000008001800100000000C9
:1036000000000000000000000000000000000000BA
:1036100000000000800180010000000000000000A8
:103620000000000000000000800180010001000196
:10363000800000000000000000000000000000000A
:1036400000000000000000000010001C800FE003DC
:10365000F8001800F800E003800F001C00100000C4
:10366000000000000000000000000000000000005A
:103670000000000000000000F81F00000000000033
:10368000F81F000000000000000000000000000023
:10369000000000000000000000000000000000002A
:1036A000000000000000000008003800F001C00722
:1036B000001F0018001FC007F001380008000000BC
:1036C00000000000000000000000E003F80F180CEC
:1036D0000C180C180018000C000600038001C00034
:1036E000C000C00000000000C000C00000000000DA
:1036F000000000000000000000000000E0071818B3
:103700000420C229224A11440944094409440922D7
:103710001113E20C024004201818E007000000001A
:103720000000000000000000000080038003C006CD
:10373000C006C006600C600C301830183018F83F16
:10374000F83F1C700C600C6006C006C00000000052
:1037500000000000000000000000FC03FC0F0C0C47
:103760000C180C180C180C0CFC07FC0F0C180C3067
:103770000C300C300C300C18FC1FFC070000000053
:1037800000000000000000000000C007F01F3838F3
:103790001C300C70066006000600060006000600DD
:1037A000060006600C701C30F01FE00700000000EF
:1037B00000000000000000000000FE03FE0F060EE7
:1037C0000618061806300630063006300630063079
:1037D000063006180618060EFE0FFE030000000055
:1037E00000000000000000000000FC3FFC3F0C0057
:1037F0000C000C000C000C00FC1FFC1F0C000C004B
:103800000C000C000C000C00FC3FFC3F0000000012
:1038100000000000000000000000F83FF83F180022
:103820001800180018001800F81FF81F18001800DA
:1038300018001800180018001800180000000000F8
:1038400000000000000000000000E00FF83F3C789E
:103850000E6006E007C00300030003FE03FE03C082
:1038600007C006C00EC03CF0F83FE00F00000000AB
:10387000000000000000000000000C300C300C3094
:103880000C300C300C300C30FC3FFC3F0C300C305A
:103890000C300C300C300C300C300C3000000000C0
:1038A0000000000000000000000080018001800195
:1038B0008001800180018001800180018001800100
:1038C00080018001800180018001800100000000F2
:1038D00000000000000000000000000600060006D6
:1038E00000060006000600060006000600060006A8
:1038F0000006180618063807F003E0010000000073
:103900000000000000000000000006300618060C51
:10391000060606038601C60066007600DE008E01FC
:1039200006030606060C06180630066000000000B6
:10393000000000000000000000001800180018003F
:1039400018001800180018001800180018001800B7
:103950001800180018001800F81FF81F00000000D9
:10396000000000000000000000000EE01EF01EF04D
:103970001EF036D836D836D836D866CC66CC66CC6B
:10398000C6C6C6C6C6C6C6C686C386C30000000075
:10399000000000000000000000000C301C303C3033
:1039A0003C306C306C30CC30CC308C310C330C3340
:1039B0000C360C360C3C0C3C0C380C300000000073
:1039C00000000000000000000000E007F81F1C38A5
:1039D0000E70066003C003C003C003C003C003C071
:1039E00003C006600E701C38F81FE00700000000DE
:1039F00000000000000000000000FC0FFC1F0C385D
:103A00000C300C300C300C300C18FC1FFC070C0078
:103A10000C000C000C000C000C000C00000000005E
:103A200000000000000000000000E007F81F1C3844
:103A30000E70066003E003C003C003C003C003C0F0
:103A400007E006630E3F1C3CF83FE0F700C00000B3
:103A500000000000000000000000FE0FFE1F0638FE
:103A60000630063006300638FE1FFE07060306063F
:103A7000060C061806180630063006600000000026
:103A800000000000000000000000E003F80F1C0C24
:103A90000C180C180C001C00F803E00F001E003876
:103AA000063006300E301C1CF80FE0070000000046
:103AB00000000000000000000000FE7FFE7F80018B
:103AC00080018001800180018001800180018001EE
:103AD00080018001800180018001800100000000E0
:103AE000000000000000000000000C300C300C3022
:103AF0000C300C300C300C300C300C300C300C30E6
:103B00000C300C300C301818F81FE00700000000D3
:103B100000000000000000000000036006300630D6
:103B200006300C180C180C18180C180C380E30062F
:103B30003006700760036003C001C0010000000090
:103B4000000000000000000000000360C361C361CA
:103B5000C3616633663366336633663366336C1B24
:103B60006C1B6C1B2C1A3C1E380E380E000000001B
:103B7000000000000000000000000FE00C70183092
:103B80003018700C600EC00780038003C003E0068D
:103B9000700C301C18180C300E6007E0000000009C
:103BA0000000000000000000000003C006600C30B0
:103BB0001C383818300C6006E007C0038001800113
:103BC00080018001800180018001800100000000EF
:103BD00000000000000000000000FC7FFC7F00608F
:103BE00000300018000C000600038001C0006000D7
:103BF000300018000C000600FE7FFE7F0000000071
:103C000000000000000000000000E003E00360008E
:103C100060006000600060006000600060006000A4
:103C20006000600060006000600060006000600094
:103C30006000E003E003000000003000300060009E
:103C400060006000C000C000C000C00180018001B1
:103C500080010003000300030006000600000000CE
:103C600000000000000000000000E003E00300038B
:103C7000000300030003000300030003000300032C
:103C8000000300030003000300030003000300031C
:103C90000003E003E003000000000000C001C001D9
:103CA00060036003600330063006180C180C000037
:103CB0000000000000000000000000000000000004
:103CC00000000000000000000000000000000000F4
:103CD00000000000000000000000000000000000E4
:103CE00000000000000000000000FFFFFFFF0000D8
:103CF000000000000000000000000C000C000C00A0
:103D00000C000C000C00000000000000000000008F
:103D100000000000000000000000000000000000A3
:103D20000000000000000000000000000000000093
:103D300000000000F003F8071C0C0C0C000FF00F43
:103D4000F80C0C0C0C0C1C0FF80FF0180000000005
:103D5000000000000000000000001800180018001B
:103D600018001800D803F80F380C1818181818186D
:103D7000181818181818380CF80FD803000000008D
:103D80000000000000000000000000000000000033
:103D900000000000C003F007300E180C18001800D7
:103DA00018001800180C300EF007C00300000000C7
:103DB00000000000000000000000001800180018BB
:103DC00000180018C01BF01F301C181818181818FD
:103DD000181818181818301CF01FC01B000000001D
:103DE00000000000000000000000000000000000D3
:103DF00000000000C003F00F300C1818F81FF81F67
:103E0000180018003818301CF00FC0070000000020
:103E100000000000000000000000800FC00FC00084
:103E2000C000C000F007F007C000C000C000C00024
:103E3000C000C000C000C000C000C0000000000002
:103E40000000000000000000000000000000000072
:103E500000000000E00DF80F180E0C0C0C0C0C0C00
:103E60000C0C0C0C0C0C180EF80FE00D000C0C0CCC
:103E70001C06F807F00100000000180018001800E8
:103E800018001800D807F80F381C18181818181838
:103E90001818181818181818181818180000000002
:103EA00000000000000000000000C000C000000092
:103EB00000000000C000C000C000C000C000C00082
:103EC000C000C000C000C000C000C0000000000072
:103ED00000000000000000000000C000C000000062
:103EE00000000000C000C000C000C000C000C00052
:103EF000C000C000C000C000C000C000C000C000C2
:103F0000C000F8007800000000000C000C000C005D
:103F10000C000C000C0C0C060C038C01CC006C008B
:103F2000FC009C018C030C030C060C0C0000000030
:103F300000000000000000000000C000C000C00041
:103F4000C000C000C000C000C000C000C000C00071
:103F5000C000C000C000C000C000C00000000000E1
:103F60000000000000000000000000000000000051
:103F7000000000007C3CFF7EC7E383C183C183C196
:103F800083C183C183C183C183C183C10000000099
:103F90000000000000000000000000000000000021
:103FA000000000009807F80F381C18181818181887
:103FB00018181818181818181818181800000000E1
:103FC00000000000000000000000000000000000F1
:103FD00000000000C003F00F300C18181818181853
:103FE000181818181818300CF00FC0030000000043
:103FF00000000000000000000000000000000000C1
:1040000000000000D803F80F380C181818181818FA
:10401000181818181818380CF80FD80318001800BA
:104020001800180018000000000000000000000048
:1040300000000000C01BF01F301C181818181818BA
:10404000181818181818301CF01FC01B001800187A
:104050000018001800180000000000000000000018
:1040600000000000B007F0037000300030003000A6
:104070003000300030003000300030000000000020
:104080000000000000000000000000000000000030
:1040900000000000E003F003380E180C3800F003B5
:1040A000C007000C180C380EF007E00300000000F9
:1040B0000000000000000000000000008000C000C0
:1040C000C000C000F007F007C000C000C000C00082
:1040D000C000C000C000C000C00780070000000092
:1040E00000000000000000000000000000000000D0
:1040F00000000000181818181818181818181818A0
:10410000181818181818381CF01FE01900000000C3
:10411000000000000000000000000000000000009F
:10412000000000000C18180C180C180C3006300693
:104130003006600360036003C001C001000000009E
:10414000000000000000000000000000000000006F
:1041500000000000C141C141C361636363636363E5
:104160003636363636361C1C1C1C1C1C0000000063
:10417000000000000000000000000000000000003F
:10418000000000001C38381C300C6006600360031F
:10419000600360036006300C381C1C38000000000F
:1041A000000000000000000000000000000000000F
:1041B000000000001830301830187018600C600CC7
:1041C000E00CC006C00680038003800380018001EC
:1041D000C001F000700000000000000000000000BE
:1041E00000000000FC1FFC1F000C00060003800103
:1041F000C000600030001800FC1FFC1F0000000021
:104200000000000000000000000000038001C0006A
:10421000C000C000C000C000C000600060003000EE
:1042200060004000C000C000C000C000C000C0006E
:104230008001000300000000000080018001800177
:104240008001800180018001800180018001800166
:104250008001800180018001800180018001800156
:10426000800180018001000000006000C000C001EA
:1042700080018001800180018001000300030006AD
:104280000003000180018001800180018001800124
:10429000C0006000000000000000000000000000FE
:1042A0000000000000000000F010F81F080F0000E0
:1042B00000000000000000000000000000000000FE
:1042C00000000000000000000000000000000000EE
:1042D00000000000000000000000000000000000DE
:1042E00000000020002000200020002000200020EE
:1042F00000000020000000000000005000500050AE
:1043000000000000000000000000000000000000AD
:104310000000000900090012007F0012007F001257
:104320000024002400000000001000380054005059
:1043300000500038001400540054003800100000F1
:104340000000803000490049004AC03220052009A1
:104350002009C010000000000000000C0012001234
:1043600000140018002500230023801D0000000019
:10437000000000400040004000000000000000007D
:104380000000000000000000000000080010001005
:10439000002000200020002000200020001000103D
:1043A000000000400020002000100010001000104D
:1043B00000100010002000200000002000700020ED
:1043C000005000000000000000000000000000009D
:1043D00000000000000000080008007F000800083E
:1043E00000000000000000000000000000000000CD
:1043F000000000000000000000000020002000403D
:10440000000000000000000000000000007000003C
:10441000000000000000000000000000000000009C
:10442000000000000000000000000020000000006C
:1044300000000010001000100020002000200020CC
:104440000040004000000000000000100028004470
:104450000044004400440044002800100000000014
:10446000000000100030005000100010001000107C
:104470000010001000000000000000300048004460
:1044800000040008001000200040007C0000000034
:10449000000000300048000400080010000800443C
:1044A000004800300000000000000008001800185C
:1044B000002800280048007C0008000800000000D8
:1044C0000000003C00200040007000480004004450
:1044D00000480030000000000000001800240040E8
:1044E0000050006800440044002800100000000054
:1044F0000000007C000400080010001000100020E4
:1045000000200020000000000000001000280044EF
:1045100000280010002800440028001000000000BF
:1045200000000010002800440044002C0014000487
:1045300000480030000000000000000000000020E3
:10454000000000000000000000000020000000004B
:10455000000000000000002000000000000000003B
:1045600000000020002000400000000000040008BF
:10457000003000400030000800040000000000008F
:10458000000000000000007C00000000007C000033
:1045900000000000000000000000000000400020BB
:1045A0000018000400180020004000000000000077
:1045B00000000038006400440004000800100010EF
:1045C00000000010000000000000800F4010A02E2E
:1045D000A0512051205120512053C04D2020401087
:1045E000000000080014001400140022003E002205
:1045F00000410041000000000000003C00220022B9
:104600000022003C002200220022003C00000000AA
:104610000000000E001100210020002000200021D9
:104620000011000E000000000000003C00220021EC
:1046300000210021002100210022003C0000000098
:104640000000003E002000200020003E002000204E
:104650000020003E000000000000003E002000207E
:104660000020003C0020002000200020000000006E
:104670000000000E00110021002000270021002171
:104680000011000E000000000000002100210021A8
:104690000021003F00210021002100210000000036
:1046A000000000200020002000200020002000202A
:1046B00000200020000000000000000800080008A2
:1046C0000008000800080048004800300000000012
:1046D00000000022002400280028003800280024C0
:1046E0000024002200000000000000200020002024
:1046F00000200020002000200020003E00000000DC
:1047000000008020803180318031802A802A802AF8
:10471000802A8024000000000000002100310031C8
:1047200000290029002500230023002100000000AB
:104730000000000C001200210021002100210021B6
:104740000012000C000000000000003C00220022CB
:104750000022003C0020002000200020000000007B
:104760000000000C00120021002100210021002186
:104770000016000D000100000000003E0021002195
:104780000021003E002400220021802000000000C3
:104790000000001C002200220020001C0002002259
:1047A0000022001C000000000000003E000800087D
:1047B00000080008000800080008000800000000C9
:1047C0000000002100210021002100210021002102
:1047D0000012000C00000000000000410041002217
:1047E0000022002200140014001400080000000041
:1047F00000004044404A402A802A802A802A802A99
:10480000802A001100000000000000410022001476
:1048100000140008001400140022004100000000F1
:1048200000000041002200220014000800080008D7
:1048300000080008000000000000007E00020004E4
:1048400000080010001000200040007E0000000062
:104850000000003000200020002000200020002068
:104860000020002000200020000000400040002028
:104870000020002000200020001000100000000098
:104880000000006000200020002000200020002008
:104890000020002000200020000000100028002838
:1048A000002800440000000000000000000000009C
:1048B00000000000000000000000000000000000F8
:1048C000000000000000007E00400020000000000A
:1048D00000000000000000000000000000000000D8
:1048E000000000000000003800440004003C0044C8
:1048F0000044003C00000000000000400040005860
:1049000000640044004400440064005800000000BB
:10491000000000000000003000480040004000405F
:1049200000480030000000000000000400040034D3
:10493000004C004400440044004C003400000000DF
:10494000000000000000003800440044007C0040EB
:10495000004400380000000000000060004000E05B
:1049600000400040004000400040004000000000C7
:104970000000000000000034004C004400440044EB
:10498000004C003400040044000000400040005887
:10499000006400440044004400440044000000005F
:1049A0000000004000000040004000400040004087
:1049B00000400040000000000000004000000040F7
:1049C00000400040004000400040004000400040E7
:1049D00000000040004000480050006000500050BF
:1049E0000048004800000000000000400040004077
:1049F0000040004000400040004000400000000037
:104A00000000000000000052006D0049004900490C
:104A100000490049000000000000000000000058AC
:104A200000640044004400440044004400000000CE
:104A3000000000000000003800440044004400442E
:104A40000044003800000000000000000000005892
:104A500000640044004400440064005800400040EA
:104A60000000000000000034004C004400440044FA
:104A7000004C00340004000400000000000000505E
:104A80000060004000400040004000400000000086
:104A90000000000000000030004800400030000826
:104AA000004800300000000000000040004000E02E
:104AB0000040004000400040004000600000000056
:104AC0000000000000000044004400440044004492
:104AD000004C003400000000000000000000004412
:104AE00000440028002800280028001000000000D2
:104AF0000000000000000049004900550055005525
:104B000000550022000000000000000000000044EA
:104B100000280028001000280028004400000000A1
:104B20000000000000000044004400280028002885
:104B300000100010001000100000000000000078BD
:104B40000008001000200020004000780000000055
:104B50000000001000200020002000200040002065
:104B60000020002000200020000000200020002065
:104B70000020002000200020002000200020002035
:104B80000000004000200020002000200010002035
:104B90000020002000200020000000000000000095
:104BA0000074005800000000000000000000000039
:104BB00000000000007000500050005000500050F5
:104BC0000050007000000000000000000000000025
:104BD00000000000000000000000000000000000D5
:104BE0000000000000001000100010001000100075
:104BF000100000001000000000000000000028006D
:104C00002800280000000000000000000000000054
:104C1000000000000000140014003E0014002800F2
:104C20007C00280028000000000000001000380070
:104C300054005000380014001400540038001000D4
:104C40000000000000004400A800A800500014006C
:104C50001A002A00240000000000000000002000CC
:104C6000500050002000E80098009800600000000C
:104C700000000000000080008000800000000000B4
:104C800000000000000000000000000000004000E4
:104C90008000800080008000800080008000800014
:104CA0000000000000008000400040004000400084
:104CB00040004000400040000000000000004000B4
:104CC000E0004000A0000000000000000000000024
:104CD0000000000000000000000020002000F8009C
:104CE0002000200000000000000000000000000084
:104CF0000000000000000000000000004000400034
:104D000000000000000000000000000000000000A3
:104D1000C0000000000000000000000000000000D3
:104D20000000000000000000000000004000000043
:104D30000000000000002000200020004000400093
:104D40008000800080000000000000000000600083
:104D50009000900090009000900090006000000093
:104D600000000000000020006000A00020002000E3
:104D70002000200020000000000000000000600073
:104D8000900010001000200040008000F0000000A3
:104D900000000000000060009000100060001000A3
:104DA00010009000600000000000000000001000F3
:104DB0003000500050009000F8001000100000007B
:104DC000000000000000700040008000E0001000C3
:104DD0001000900060000000000000000000600073
:104DE00090008000A000D0009000900060000000C3
:104DF000000000000000F000100020002000200053
:104E00004000400040000000000000000000600082
:104E10009000900060009000900090006000000002
:104E2000000000000000600090009000B000500002
:104E30001000900060000000000000000000000072
:104E400000004000000000000000000040000000E2
:104E50000000000000000000000040000000000012
:104E600000000000400040000000000000000000C2
:104E700000001000600080006000100000000000D2
:104E8000000000000000000000000000F000000032
:104E9000F000000000000000000000000000000022
:104EA0000000800060001000600080000000000032
:104EB0000000000000006000900010002000400092
:104EC00040000000400000000000000000001C0046
:104ED00022005B00A500A500A500A5009E004100E2
:104EE0000000000000002000500050005000500062
:104EF0007000880088000000000000000000F00042
:104F000088008800F000880088008800F000000019
:104F10000000000000003800440084008000800091
:104F20008400440038000000000000000000E000A1
:104F3000900088008800880088009000E000000051
:104F4000000000000000F80080008000F8008000F1
:104F500080008000F80000000000000000007800E1
:104F60004000400070004000400040004000000051
:104F700000000000000038004400840080009C0015
:104F80008400440038000000000000000000880099
:104F900088008800F80088008800880088000000E9
:104FA0000000000000008000800080008000800081
:104FB0008000800080000000000000000000100061
:104FC0001000100010001000900090006000000021
:104FD00000000000000088009000A000E000A00099
:104FE0009000900088000000000000000000800099
:104FF000800080008000800080008000F0000000C1
:105000000000000000008200C600C600AA00AA003E
:10501000AA00AA0092000000000000000000840026
:10502000C400A400A400940094008C00840000003C
:10503000000000000000300048008400840084006C
:105040008400480030000000000000000000F00074
:10505000880088008800F000800080008000000048
:10506000000000000000300048008400840084003C
:1050700084005800340004000000000000007800A4
:105080004400440078005000480044004200000002
:105090000000000000007000880080007000080020
:1050A0008800880070000000000000000000F80088
:1050B0002000200020002000200020002000000010
:1050C000000000000000840084008400840084004C
:1050D000840048003000000000000000000088004C
:1050E0008800500050005000500050002000000088
:1050F0000000000000009200AA00AA00AA00AA0076
:10510000AA00AA0044000000000000000000840083
:10511000480048003000300048004800840000008B
:105120000000000000008800500050002000200017
:105130002000200020000000000000000000F80017
:10514000080010002000200040008000F80000004F
:10515000000000000000C00080008000800080008F
:1051600080008000800080000000000000008000BF
:10517000800040004000400040002000200000006F
:10518000000000000000C00040004000400040005F
:1051900040004000400040000000000000004000CF
:1051A000A000A000A000000000000000000000001F
:1051B00000000000000000000000000000000000EF
:1051C000000000000000F800000000000000800067
:1051D000400000000000000000000000000000008F
:1051E00000000000000000000000E000100070005F
:1051F000900090007000000000000000000080009F
:105200008000A000D00090009000D000A00000001E
:10521000000000000000000000006000900080001E
:1052200080009000600000000000000000001000FE
:1052300010005000B00090009000B000500000003E
:105240000000000000000000000060009000F0007E
:105250008000900060000000000000000000C0001E
:105260008000C0008000800080008000800000007E
:10527000000000000000000000005000B00090009E
:105280009000B000500010000000000000008000FE
:105290008000A000D00090009000900090000000DE
:1052A00000000000000080000000800080008000FE
:1052B00080008000800000000000000000008000EE
:1052C000000080008000800080008000800080005E
:1052D000000000000000800080009000A000C000DE
:1052E000A00090009000000000000000000080007E
:1052F000800080008000800080008000800000002E
:1053000000000000000000000000A600DA0092008B
:1053100092009200920000000000000000000000D7
:105320000000A000D00090009000900090000000CD
:1053300000000000000000000000600090009000ED
:1053400090009000600000000000000000000000DD
:105350000000A000D00090009000D000A0008000CD
:10536000000000000000000000005000B0009000AD
:105370009000B0005000100000000000000000008D
:105380000000A000C00080008000800080000000BD
:1053900000000000000000000000E000900040005D
:1053A000200090006000000000000000000080006D
:1053B0008000C0008000800080008000C0000000ED
:1053C000000000000000000000009000900090002D
:1053D0009000B0005000000000000000000000003D
:1053E000000088008800500050005000200000009D
:1053F000000000000000000000009200AA00AA00C7
:10540000AA00AA0044000000000000000000000004
:10541000000088005000200020005000880000009C
:105420000000000000000000000088005000500054
:1054300050002000200020000000000000000000BC
:105440000000F0001000200040008000F00000008C
:10545000000000000000C00080008000800000000C
:1054600080008000800080000000000000008000BC
:10547000800080008000800080008000800080002C
:10548000000000000000C00040004000400020007C
:10549000400040004000400000000000000000000C
:1054A00000000000E800B000000000000000000064
:1054B0000000000000000000E000A000A000A0002C
:1054C000A000A000E00000000000000000000000BC
:1054D00000000000000000004000400040004000CC
:1054E0004000400000004000A000A000A00000001C
:1054F0000000000000000000000024002400FE0066
:105500004800FC00480048003800540050003800B3
:1055100014001400540038004400A800A8005000F3
:1055200014001A002A00240010002800280010008F
:1055300074004C004C0030001000100010000000FF
:105540000000000000000000080010001000100023
:1055500010001000100008001000080008000800EB
:1055600008000800080010000000000024001800D7
:105570003C00180024000000000000001000100093
:105580007C0010001000000000000000000000007F
:1055900000000800080010000000000000000000EB
:1055A0003C000000000000000000000000000000BF
:1055B0000000000018001800080008000800100093
:1055C00010002000200020001800240024002400E7
:1055D00024002400240018000800180028000800F7
:1055E000080008000800080038004400000004001B
:1055F0000800100020007C0018002400040018009F
:10560000040004002400180004000C00140024000E
:1056100044007E00040004003C002000200038000C
:1056200004000400240018001800240020003800A2
:1056300024002400240018003C0004000800080096
:1056400008001000100010001800240024001800AA
:105650002400240024001800180024002400240042
:105660001C000400240018000000000010000000CE
:105670000000100000000000000000000800000012
:1056800000000800100000000000000004001800E6
:1056900020001800040000000000000000003C0092
:1056A00000003C0000000000000000002000180086
:1056B0000400180020000000180024000400080066
:1056C00010001000000010003C0042009900A500EE
:1056D000A5009D004200380038004400440044000A
:1056E0007C004400440044007800440044007800FA
:1056F00044004400440078001C00220042004000A6
:105700004000420022001C00700048004400440099
:1057100044004400480070007C00400040007C00D1
:105720004000400040007C003C0020002000380089
:1057300020002000200020001C0022004200400029
:105740004E00420022001C004400440044007C0043
:1057500044004400440044001000100010001000F9
:1057600010001000100010000400040004000400E9
:105770000400240024001800440048005000700079
:105780005000480048004400200020002000200075
:105790002000200020003C008200C600C600AA00B5
:1057A000AA00AA00AA009200420062005200520021
:1057B0004A004A004600420018002400420042000D
:1057C00042004200240018007800440044004400D5
:1057D00078004000400040001800240042004200D1
:1057E000420042002C001A00780044004400780077
:1057F0005000480044004200380044004000380097
:1058000004004400440038007C0010001000100028
:105810001000100010001000420042004200420040
:1058200042004200240018004400440028002800E0
:1058300028002800280010009200AA00AA00AA0050
:10584000AA00AA00AA004400420024002400180074
:105850001800240024004200440028002800100002
:1058600010001000100010007C0004000800100060
:105870001000200040007C001C00100010001000F0
:105880001000100010001C0010001000080008009C
:1058900008000800040004001C00040004000400C8
:1058A0000400040004001C00100028004400000054
:1058B00000000000000000000000000000000000E8
:1058C0000000000000000000200010001000000098
:1058D00000000000000000000000000018000400AC
:1058E0001C00240024001C0020002000280034009C
:1058F00024002400340028000000000018002400C8
:1059000020002000240018000400040014002C00D3
:10591000240024002C0014000000000018002400C3
:105920003C002000240018000000180010001000A7
:1059300018001000100010000000180024002400BF
:105940001800040024001800200020002800340063
:105950002400240024002400100000001000100087
:1059600010001000100010000800000008000800DF
:105970000800080028001000200020002400280053
:105980003000280024002400100010001000100037
:10599000100010001000100000000000A600DA0047
:1059A0009200920092009200000000002800340053
:1059B000240024002400240000000000180024001B
:1059C00024002400240018000000280034002400D3
:1059D0003800200020002000000014002C002400CB
:1059E0001C00040004000400000000002C00300033
:1059F00020002000200020000000000018002400EB
:105A000010000800240018000000100038001000EA
:105A100010001000100018000000000024002400F6
:105A2000240024002C001400000000004400440066
:105A30002800280028001000000000009200AA00A2
:105A4000AA00AA00AA0044000000000044002800A8
:105A50001000100028004400000028002800280042
:105A60001000100010001000000000003C000400B6
:105A70000800100020003C0000000800100010008A
:105A8000200010001000080010001000100010008E
:105A900010001000100010000000100008000800A6
:105AA0000400080008001000000000000000600072
:105AB00092000C0000000000FF00FF00FF00FF004C
:105AC000FF00FF00FF00FF0020202043616C69629F
:105AD000726174696F6E204661696C2120202020FC
